:020000040800F2
:1000000000500020DD120008A1120008A312000811
:10001000A5120008A7120008A9120008000000009D
:10002000000000000000000000000000AB1200080B
:10003000AD12000800000000AF120008B112000865
:1000400025130008251300082513000825130008B0
:1000500025130008251300082513000825130008A0
:100060002513000825130008251300082513000890
:100070002513000825130008251300082513000880
:100080002513000825130008251300082513000870
:100090002513000825130008251300082513000860
:1000A0002513000825130008251300082513000850
:1000B0002513000825130008251300082513000840
:1000C0002513000825130008251300082513000830
:1000D0002513000825130008251300082513000820
:1000E0002513000825130008251300080000000050
:1000F0000000000000000000000000000000000000
:0C01000000000000000000005FF808F1A3
:10010C0010B5054C237833B9044B13B10448AFF345
:10011C0000800123237010BD3C040020000000006F
:10012C00701F000808B5034B1BB103490348AFF31C
:10013C00008008BD0000000040040020701F000873
:10014C0003685A004CBF43F0004323F000431844AB
:10015C00704700BF2DE9F84339B34F1E04461546CE
:10016C003E464FF0000808EB060101EBD171491037
:10017C0004EBC1094846FFF7E3FF0346C80008300B
:10018C008F4220440BD0AB420BD8FFF7D9FF01387C
:10019C00A84201F10108E6D34846BDE8F883AB421A
:1001AC00FAD9884501D04E1EDDE74FF000094846CC
:1001BC00BDE8F883012807D0022807D0044B00289B
:1001CC000CBF184600207047024870470248704721
:1001DC00B1080008B5080008B908000830B5244B70
:1001EC00044683B08D1E3BB3284601A9AFF30080B3
:1001FC00E8B101992A46FFF7ADFF0146B8B1FFF708
:10020C009FFF4B68A064012B2ED0002B27DB081D11
:10021C00FFF796FF0023C4E913030368002B12DBDE
:10022C00FFF78EFF03460020236103B030BD00238F
:10023C000920236103B030BD0E4B0F491846C91A73
:10024C00C9100191D6E7C3F30360FFF7B3FF002891
:10025C00034614BF00200920236103B030BD0123E5
:10026C00081DC4E91303D8E7002305202361DCE74C
:10027C0000000000D41F0008BC200008036810B563
:10028C00DA07044606D49B0700F1480009D500F0B4
:10029C005DFC2368590709D51A070ED5DB0613D563
:1002AC0010BD00F04BFC23685907F5D404F1D000C5
:1002BC0000F054FC23681A07F0D404F5A87000F081
:1002CC0055FC2368DB06EBD404F5E870BDE8104060
:1002DC0000F090BC092070470346006800B1184438
:1002EC00704700BF704700BF70B504460E462046ED
:1002FC00316CFFF773FF054698B9D6F840C032460B
:10030C00214601202369C4F814C098470828EED070
:10031C00072806D12846316CFFF7E4FF301D00F0AA
:10032C0001FC01F0E7FC00BF2DE9F0474FF0000A9B
:10033C00ADF5727D0DF10C0E01F1040CC768D0F80F
:10034C00188006461446BCE80F00AEE80F00BCE867
:10035C000F00AEE80F00BCE80F00AEE80F009CE801
:10036C000F0002AD8EE80F00C5F800A021E02B6C49
:10037C004FF4F072294673617AA800F06FFE314693
:10038C00504633697AAA9847889C82466C643346F7
:10039C00324649460120CDE90058B8470446F0B929
:1003AC004FF4F07228467AA900F058FEBAF1080F03
:1003BC001BD13046296CFFF711FF04F109095FFAD4
:1003CC0089FA04460028D2D0A96B334669643246B8
:1003DC000120CDE900584AF01001B84700B10924BA
:1003EC0020460DF5727DBDE8F087BAF1070FF6D106
:1003FC002046296CFFF776FF03A800F093FB00BFA3
:10040C00406C7047F0B54FF0FF37CB6BF9B00B6415
:10041C0001AC01F1040C0E460546BCE80F000FC4FC
:10042C00BCE80F000FC4BCE80F000FC49CE80F0021
:10043C0084E80F00009706E06A4629462B69984726
:10044C000828044608D128461099FFF7C7FE002853
:10045C00F2D0092079B0F0BD6846FFF70FFF062CEB
:10046C00F7D131462846FFF73FFF00BF10B41446C2
:10047C008461DC6BC16000221C64194610BC53E71C
:10048C0070B54369C6680B64AEB90A460369044685
:10049C000D46014602209847072805D008280FD1A1
:1004AC0029462046FFF720FF3046296CFFF71AFF3C
:1004BC00281D00F037FB0122FFF736FF01F01AFC74
:1004CC0001F018FCC2682AB1D1F83CC00022C1F876
:1004DC0040C029E796E700BF704700BF836801461C
:1004EC000BB1012018477047012912D009D873B9F4
:1004FC000F2A0CD800EB820042681846009B1A6049
:10050C0070470339012994BF012002207047022053
:10051C0070470846704700BF002300B585B00A46F7
:10052C0003A900911946FFF7DFFF039805B05DF8AA
:10053C0004FB00BF012912D009D873B90F2A0CD8BB
:10054C00009900EB82020968184651607047033924
:10055C00012994BF012002207047022070470846F1
:10056C00704700BF002310B584B003AC0392009415
:10057C000A461946FFF7DEFF04B010BD70B54FF008
:10058C00FF36D36BADF50E7D13640DF15C0E02F1ED
:10059C00040C05460C46BCE80F00AEE80F00BCE8A6
:1005AC000F00AEE80F00BCE80F00AEE80F009CE8AF
:1005BC000F008EE80F00169612E00C2116A86A4662
:1005CC00FFF7D0FF214616A8A84778B9694608203E
:1005DC00049B16AA98470528064608D0092805D07A
:1005EC0068462699FFF7FAFD0028E6D0092616A8DA
:1005FC00FFF744FE30460DF50E7D70BD2DE9F04F32
:10060C001E46CC6C89B054F8043B0D46174600F0DE
:10061C0003080694002E79D002228DF81C201A0CA7
:10062C008DF81D201B04D2B2059304EB82042B6DB4
:10063C00B8F1020F08BFAC6B13F001030CD03846B5
:10064C0005A900F071FB18B9082009B0BDE8F08FBE
:10065C00092009B0BDE8F08FD4F800A0BAF1000F62
:10066C00EDD0019300F008030293022E4AD0B4F8A7
:10067C0000A0B4F802900434AA6C0F21384629F07B
:10068C00010B9344FFF748FF834539D82AF0010248
:10069C005A44824294BF002001204FEA490303F0E0
:1006AC0002030AF0010A43EA0A03012B49D0022B88
:1006BC0032D0002BCCD1B8F1000F02D0002840F082
:1006CC00CE800434D4F800A0BAF1000FCDD1384656
:1006DC0005A900F029FB0028BAD1019B002BB3D04F
:1006EC000F213846FFF718FF0E2102463846FFF758
:1006FC0039FF38460F216A4AFFF734FF0720A8E775
:10070C000020CAE7D4F804900834B5E71B0205931F
:10071C000323ADF81C308AE7236823F0004BB8F1B3
:10072C00000F45D128B1029A002A5CD0BBF1000F12
:10073C0074D0002B00DA04340BF1010B04EB8B04A6
:10074C00C0E7B8F1000F19D1B0B163682268991CE9
:10075C004FEAD2723FF47CAF05F15801013304919A
:10076C0000F09180201DFFF7B7FD04AB0146284631
:10077C00AFF3008000285CD10834A3E70D21384684
:10078C00D5F82090FFF7C8FE8145F5D1AB6A9C42A5
:10079C00F2D12046FFF7D4FC0F2102463846FFF772
:1007AC00E1FE38462A460021FFF7DCFE072050E721
:1007BC000D213846D5F82090FFF7AEFE814501D0CB
:1007CC002368B6E7AB6A9C42FAD104230022C5E940
:1007DC000B23E318C5F828B06B632368002B5ADB96
:1007EC0001230193A8E705F15803CDF80C8091463D
:1007FC00B04604F1040A1E460EE050460496FFF77C
:10080C006BFD0022014604AB284609F101090AF1EF
:10081C00040AAFF30080E8B9D945EED10D21384672
:10082C00FFF77AFE0346049A0620C5E909242B62D9
:10083C000FE781460D213846FFF76EFEB9F1020F26
:10084C00286225D12B46049A43F82C2F6B62062084
:10085C00AC62FEE646462368DDF80C8069E720466C
:10086C00FFF76EFC02460434AC6328461446AFF323
:10087C00008000283FF4ECAE384622460F21FFF7EB
:10088C0071FE0720E5E60D213846FFF745FE28628C
:10089C00049B6B62DBE70BF1010004EB800079E752
:1008AC00000000000023A9E60123A7E60223A5E629
:1008BC002DE9F043064615461C46C3B0042900F248
:1008CC00B880DFE801F09C56B62D0300002C40F0F8
:1008DC00B080102A00F2AD800368D80600F1F180D8
:1008EC0020AF384600F090F9012438460023B16B54
:1008FC0004FA03F22A4203F1010305D00A4652F826
:10090C0004CB1146C0F800C0042B00F10400EFD159
:10091C003846B16300F06EF9002043B0BDE8F083B7
:10092C00032C40F0868094B204EB1243102B4FEA58
:10093C0012457ED803681F0700F1CB8020AF3846E4
:10094C0000F036F9B26B07EBC50154B10B4601EB65
:10095C00C401D01AE4001D5843F8045B8B42FAD151
:10096C0022443846B26300F001F9002043B0BDE8E0
:10097C00F083012C4FEA124895B256D0052C58D171
:10098C0008EB0509B9F1200F53D8B8F10F0F73D943
:10099C00A946002D40F08480B36B65B320AF4FF0B7
:1009AC00000907EBC807043F03EBC50553F8041B0C
:1009BC00AB4247F8041FF9D1B9F1000F0FD06F46C5
:1009CC004146102938BF102107EBC101843903EBD4
:1009DC00C90553F8040BAB4241F8040FF9D1012CB3
:1009EC007FD0B8F10F0FB56342D9B9F1000F02D027
:1009FC00684600F0B3F8002043B0BDE8F083C4B9FA
:100A0C0023460124826B371DA8B204FA03F101427C
:100A1C001CBF52F8041B47F823100133102BF4D1E0
:100A2C0015F40050E7D1B26304E008EB0503102B7A
:100A3C0003D9022043B0BDE8F083B8F10F0FF8D80A
:100A4C003368DA0706D5304623F0030340F8483BF9
:100A5C0000F078F820AF384600F074F8B36B002D36
:100A6C009DD11D4604353846B56300F067F8C2E7E2
:100A7C0020A800F06BF8B8E7B9F1100F3FD9A9F135
:100A8C0010093368D90708D5304623F0010343F029
:100A9C00020340F8483B00F05DF8B9F1000F31D08B
:100AAC0033685A071FD4B8F10F0F24D96F46C8F119
:100ABC001005384600F056F8002DB36B80DD20AFE2
:100ACC006FE723F01003336006F5E87000F09CF834
:100ADC0006E723F00803036000F5A87000F068F83F
:100AEC002CE720AFBEE7304623F0040340F8D03BA0
:100AFC0000F038F8D7E720A800F02CF8D6E74FF034
:100B0C000009BEE7B8F10F0F3FF646AF20AF3846ED
:100B1C0000F020F8B36B002D7FF441AF384600F0A5
:100B2C0015F868E700F1340191E838009C46A646B8
:100B3C004CF8045D90E8FF0FE54600BD90EC210BEE
:100B4C00704700BF80EC210B704700BF90EC200B6E
:100B5C00704700BF80EC200B704700BFD0EC200B1F
:100B6C00704700BFC0EC200B704700BFF0EC0201D7
:100B7C00F0EC0211F0EC0221F0EC0231F0EC02414D
:100B8C00F0EC0251F0EC0261F0EC0271F0EC02813D
:100B9C00F0EC0291F0EC02A1F0EC02B1F0EC02C12D
:100BAC00F0EC02D1F0EC02E1F0EC02F1704700BF86
:100BBC00E0EC0201E0EC0211E0EC0221E0EC02318D
:100BCC00E0EC0241E0EC0251E0EC0261E0EC02717D
:100BDC00E0EC0281E0EC0291E0EC02A1E0EC02B16D
:100BEC00E0EC02C1E0EC02D1E0EC02E1E0EC02F15D
:100BFC00704700BFB0FC0181B0FC0191B0FC01A1B9
:100C0C00B0FC01B1704700BFA0FC0181A0FC0191B8
:100C1C00A0FC01A1A0FC01B1704700BFEC4600B5DF
:100C2C002DE900502DE9FF1F4FF000032DE90C00BA
:100C3C0001A9FFF7E7FBDDF840E012B0704700BFF9
:100C4C00EC4600B52DE900502DE9FF1F4FF00003D5
:100C5C002DE90C0001A9FFF713FCDDF840E012B000
:100C6C00704700BFEC4600B52DE900502DE9FF1F81
:100C7C004FF000032DE90C0001A9FFF723FCDDF870
:100C8C0040E012B0704700BFEC4600B52DE90050B3
:100C9C002DE9FF1F4FF000032DE90C0001ABFFF70E
:100CAC00E5FBDDF840E012B0704700BFEC4600B544
:100CBC002DE900502DE9FF1F4FF000032DE90C002A
:100CCC0001AAFFF75BFCDDF840E012B0704700BFF3
:100CDC00027A03467AB9427AA2B14FF0030C41680A
:100CEC00013A427208680A1D5A60020283F808C071
:100CFC00000E1A6070470068013A1A7202021A60FC
:100D0C00000E7047B0207047002300B585B003A9D2
:100D1C0000910C221946FFF7E7FB039805B05DF82C
:100D2C0004FB00BFF0E700BF2DE9F0434FF00008D3
:100D3C0005460E4685B03046FFF7CAFFB02804467C
:100D4C0000F0BA80070620D500F0F003802B4DD0C0
:100D5C00902B36D0A02B60D0B02B73D0C02B00F0D2
:100D6C008A8000F0F803D02B0BD100F0070201327F
:100D7C0005230121284642F40022FFF799FD0028A3
:100D8C00D9D0092005B0BDE8F0838300DBB21F1D6C
:100D9C0000230DF10C0919460D222846CDF80090C0
:100DAC00FFF7A2FB039B60064CBFDF1BFF18002361
:100DBC000D2228461946CDF800900397FFF7BAFB91
:100DCC00B9E700F00D030D2BDBD0002303AF194660
:100DDC0000F00F0200972846FFF786FB00230D2238
:100DEC00284619460097FFF7A5FBA4E73046FFF706
:100DFC006FFF24022043B0F5004FC2D00023040142
:100E0C0019462846A2B2FFF753FD0028B9D114F4B5
:100E1C00004F18BF4FF001088DE7C3434FF47F62BA
:100E2C0003F007031A410023010702F47F6248BF55
:100E3C0042F4804228461946FFF73AFD00283FF459
:100E4C007AAF9EE7B1283CD0B22800F0B080B3282E
:100E5C004AD000F0FC03B42B93D0012300F007021E
:100E6C001A442846194642F40022FFF721FD0028B7
:100E7C003FF461AF85E7C6284FD0C72861D000F09A
:100E8C00F803C02B70D0C8287CD0C9287FF479AF68
:100E9C003046FFF71DFF05230246012128461403A7
:100EAC0002F00F0204F470240A442243FFF700FD01
:100EBC0000283FF440AF64E7B8F1000F1CD00020CD
:100ECC0060E73046FFF704FF024600283FF459AFB5
:100EDC0010F0F0037FF455AF19462846FFF7E8FCF5
:100EEC0000283FF428AF4CE73046FFF7F1FE012312
:100EFC00024619462846D2E703AC43460E22414629
:100F0C0028460094FFF7F0FA43460F222846414644
:100F1C000094FFF70FFB404634E73046FFF7D8FE4E
:100F2C0002460323140302F00F0204F4702401326E
:100F3C00284619462243FFF7BBFC00283FF4FBAEC2
:100F4C001FE73046FFF7C4FE024600283FF419AFF6
:100F5C0010F0F0037FF415AF04212846FFF7A8FC2E
:100F6C0000283FF4E8AE0CE7032300F00F02013237
:100F7C002846194642F42022FFF79AFC00283FF439
:100F8C00DAAEFEE63046FFF7A3FE0246012102F080
:100F9C00F00402F00F0210340A440523284642EAFA
:100FAC000432FFF785FC00283FF4C5AEE9E60023C8
:100FBC000DF10C090D2219462846CDF80090FFF7CB
:100FCC0093FA3046FFF784FE02064FF002040CD56C
:100FDC00039B00F07F00A040184403903046FFF7BD
:100FEC0077FE030604F10704F2D4039B00F07F02A2
:100FFC00A24003F501731A440023039228460D22E4
:10100C001946CDF80090FFF795FA94E60B464FF091
:10101C00030C00B5C26C1846536885B008320292B6
:10102C0001A91A0E1B028DF80CC001938DF80D202E
:10103C00FFF77AFE05B05DF804FB00BF08B5FFF7BB
:10104C0071FE806C08BD00BF08B5FFF76BFEC06C6D
:10105C00C379023300EB830008BD00BF844641EA2C
:10106C00000313F0030349D1403A23D30B68036008
:10107C004B6843608B688360CB68C3600B6903610A
:10108C004B6943618B698361CB69C3610B6A0362F2
:10109C004B6A43628B6A8362CB6AC3620B6B0363DA
:1010AC004B6B43638B6B8363CB6BC36340304031BF
:1010BC00403ADBD230320BD30B6803604B68436091
:1010CC008B688360CB68C36010301031103AF3D258
:1010DC000C3205D351F8043B40F8043B043AF9D2E6
:1010EC00043208D0D2071CBF11F8013B00F8013BB9
:1010FC0001D30B8803806046704700BF082A13D3C6
:10110C008B07B1D010F00303AED0C3F10403D21A95
:10111C00DB071CBF11F8013B00F8013BA4D331F8ED
:10112C00023B20F8023B9FE7043AD9D3013A11F86D
:10113C00013B00F8013BF9D20B7803704B784370FC
:10114C008B7883706046704730B587B0002402946A
:10115C00039404940594134B9A6942F020029A610B
:10116C009A6902F020020092009A9A6942F00402F5
:10117C009A619B6903F004030193019B0A4D22467B
:10118C007021284600F0B2FA7023029301230393D6
:10119C0004940223059302A9284600F095F907B0A0
:1011AC0030BD00BF001002400008014072B6FEE7DF
:1011BC0000B591B02822002106A800F0CDFD002337
:1011CC0001930293039304930593012206924FF427
:1011DC00803307930A9202220D920E934FF4E01380
:1011EC000F9306A800F09EFA80B90F2301930221F9
:1011FC000291002303934FF480620492059301A89B
:10120C0000F0C2FC20B911B05DF804FBFFF7CEFF73
:10121C00FFF7CCFF00B585B000F0C0F8FFF7C8FFB2
:10122C00FFF792FF1022094901A800F076F801A8F7
:10123C0000F07AF84FF47A7000F0D4F801A800F0BE
:10124C007DF84FF47A7000F0CDF8F0E7000801401B
:10125C0082B00E4B9A6942F001029A619A6902F0CF
:10126C0001020092009ADA6942F08052DA61DB697D
:10127C0003F080530193019B054A536823F0E0630C
:10128C0043F00073536002B0704700BF001002407F
:10129C0000000140FEE7FEE7FEE7FEE7FEE77047D1
:1012AC007047704708B500F08BF808BD01207047F7
:1012BC0008B500F027FD162303604FF0FF3008BD82
:1012CC0008B54FF0FF31FFF7F3FFFEE77047000062
:1012DC00FFF7FCFF0B480C490C4A002302E0D458E2
:1012EC00C4500433C4188C42F9D3094A094C002366
:1012FC0001E013600432A242FBD300F009FDFFF7BA
:10130C0089FF7047000000203C040020C820000822
:10131C003C04002064040020FEE74FF0000C80F831
:10132C0000C041600281704710B501240470224650
:10133C000189406800F0DAF9204610BD08B500229A
:10134C0002700189406800F0D1F9012008BD00004D
:10135C0010B504460E4B18784FF47A73B3FBF0F3C8
:10136C000C4A1068B0FBF3F000F09AF868B90F2C37
:10137C0001D901200AE0002221464FF0FF3000F095
:10138C0057F8054B1C60002000E0012010BD00BF89
:10139C0004000020000000200800002008B5074AC7
:1013AC00136843F010031360032000F02FF80F2094
:1013BC00FFF7CEFFFFF74CFF002008BD00200240D6
:1013CC00034A1168034B1B780B441360704700BF32
:1013DC005804002004000020014B1868704700BF1F
:1013EC005804002038B50446FFF7F6FF0546B4F163
:1013FC00FF3F02D0044B1B781C44FFF7EDFF401B52
:10140C00A042FAD338BD00BF04000020074AD368BD
:10141C0023F4E0631B041B0C000200F4E0600343A4
:10142C0043F0BF6343F40033D360704700ED00E03A
:10143C0000B5194BDB68C3F30223C3F1070CBCF1F5
:10144C00040F28BF4FF0040C03F1040EBEF1060F7D
:10145C0018D9033B4FF0FF3E0EFA0CFC21EA0C01AD
:10146C0099400EFA03F322EA0303194300280BDB1D
:10147C000901C9B200F1604000F5614080F8001329
:10148C005DF804FB0023E5E700F00F000901C9B289
:10149C00024B1954F4E700BF00ED00E014ED00E03E
:1014AC000138B0F1807F0BD24FF0E0235861054A30
:1014BC00F02182F823100020986107221A617047EE
:1014CC000120704700ED00E070B582B00024A44606
:1014DC00A6E0804DAA4210D007D97F4DAA420CD06D
:1014EC0005F58035AA4208D013E0A5F58015AA426F
:1014FC0003D005F57025AA4207D18A68002A58D076
:10150C00012A51D04361082403E0A5F58015AA42B5
:10151C00F3D0BEF1FF0F4ED80646BEF1FF0F4CD8EC
:10152C004FEA8C0233680F25954023EA050304FA31
:10153C0002F2134333604B6813F0805F6ED0674B3D
:10154C009A6942F001029A619B6903F001030193CD
:10155C00019B4FEA9C02951C614B53F825600CF0E3
:10156C0003039D000F23AB4026EA03065D4B984214
:10157C0029D003F58063984200F08E8003F58063D8
:10158C00984200F08B8003F58063984219D00423B5
:10159C001AE0CC68BDE7CC680434BAE7CC680834F0
:1015AC00B7E7CC680C34B4E703610824B1E7002436
:1015BC00AFE70424ADE7061DAFE7ACF108029200DB
:1015CC00B0E7032300E00023AB4033430232444D29
:1015DC0045F822304B6813F4801F61D0424A93685F
:1015EC0043EA0E0393604B6813F4001F5ED03E4A2F
:1015FC00D36843EA0E03D3604B6813F4003F5BD00F
:10160C00394A536843EA0E0353604B6813F4803F26
:10161C0058D0354A136843EA0E0313600CF1010CE1
:10162C000A6832FA0CF353D0012303FA0CF302EAE2
:10163C00030E33EA0202F1D14A68122A3FF649AF8F
:10164C00122A3FF666AF01A555F822F007150008DF
:10165C009F150008A9150008BB1500081F150008E8
:10166C001F1500081F1500081F1500081F1500087E
:10167C001F1500081F1500081F1500081F1500086E
:10168C001F1500081F1500081F1500081F1500085E
:10169C00A3150008AF150008012395E7022393E773
:1016AC00114A936823EA0E0393609CE70E4AD368B1
:1016BC0023EA0E03D3609FE70B4A536823EA0E0319
:1016CC005360A2E7084A136823EA0E031360A5E7E8
:1016DC0002B070BD0000221000003110001002405A
:1016EC000000014000080140000401400AB1016102
:1016FC00704709040161704782B0084B1B68084AA7
:10170C00A2FB03235B0A00FB03F3019300BF019BC5
:10171C005A1E0192002BF9D102B070470000002034
:10172C00D34D6210002800F0F18170B582B00446F0
:10173C00036813F0010F2CD0994B5B6803F00C037A
:10174C00042B1DD0964B5B6803F00C03082B12D0B6
:10175C006368B3F5803F41D0002B55D103F1804332
:10176C0003F504331A6822F480321A601A6822F4E2
:10177C0080221A6037E08A4B5B6813F4803FE7D015
:10178C00874B1B6813F4003F03D06368002B00F0F9
:10179C00BF81236813F0020F75D0814B5B6813F087
:1017AC000C0F5FD07E4B5B6803F00C03082B54D0FE
:1017BC002369002B00F08A807A4B01221A60FFF714
:1017CC000BFE0546764B1B6813F0020F75D1FFF725
:1017DC0003FE401B0228F5D903209EE1704A1368D2
:1017EC0043F480331360636843B3FFF7F5FD05469C
:1017FC006B4B1B6813F4003FCBD1FFF7EDFD401B87
:10180C006428F5D9032088E1B3F5A02F09D0644BE7
:10181C001A6822F480321A601A6822F480221A6044
:10182C00E1E703F18043A3F53C331A6842F48022CC
:10183C001A601A6842F480321A60D4E7FFF7CCFDC4
:10184C000546574B1B6813F4003FA2D0FFF7C4FDAD
:10185C00401B6428F5D903205FE1514B5B6813F4FE
:10186C00803FA5D14E4B1B6813F0020F03D02369A8
:10187C00012B40F04F814A4A136823F0F803616949
:10188C0043EAC1031360236813F0080F33D0A36934
:10189C00002B5CD0434B0122C3F88024FFF79CFD46
:1018AC0005463F4B5B6A13F0020F21D1FFF794FD05
:1018BC00401B0228F5D903202FE1394A136823F085
:1018CC00F803616943EAC1031360DCE7354B00227E
:1018DC001A60FFF781FD0546314B1B6813F0020FB0
:1018EC00D1D0FFF779FD401B0228F5D9032014E174
:1018FC000120FFF701FF236813F0040F00F096801E
:10190C00274BDB6913F0805F34D1254BDA6942F049
:10191C008052DA61DB6903F080530193019B01254E
:10192C00214B1B6813F4807F26D0E368012B3DD03C
:10193C00002B53D103F1804303F504331A6A22F0D0
:10194C0001021A621A6A22F004021A6233E0154B81
:10195C000022C3F88024FFF73FFD0546104B5B6A5D
:10196C0013F0020FC7D0FFF737FD401B0228F5D943
:10197C000320D2E00025D3E70B4A136843F48073AD
:10198C001360FFF729FD0646074B1B6813F4807F95
:10199C00CBD1FFF721FD801B6428F5D90320BCE0D7
:1019AC000010024000004242007000405F4A136A7F
:1019BC0043F001031362E36833B3FFF70DFD0646F2
:1019CC005A4B1B6A13F0020F2FD1FFF705FD801B3A
:1019DC0041F288339842F3D903209EE0052B09D0BD
:1019EC00524B1A6A22F001021A621A6A22F004029D
:1019FC001A62E0E74D4B1A6A42F004021A621A6A44
:101A0C0042F001021A62D6E7FFF7E6FC0646474BA6
:101A1C001B6A13F0020F08D0FFF7DEFC801B41F2AB
:101A2C0088339842F3D9032077E0E5B9E369002BBA
:101A3C0072D03E4A526802F00C02082A56D0022B91
:101A4C0017D03B4B00221A66FFF7C6FC0446374BF7
:101A5C001B6813F0007F47D0FFF7BEFC001B022869
:101A6C00F5D9032059E0314AD36923F08053D3616F
:101A7C00DCE72F4B00221A66FFF7AEFC05462B4B1A
:101A8C001B6813F0007F06D0FFF7A6FC401B022852
:101A9C00F5D9032041E0236AB3F5803F1AD02349DE
:101AAC004B6823F47413226A606A024313434B603D
:101ABC001F4B01221A66FFF78FFC04461B4B1B6859
:101ACC0013F0007F0ED1FFF787FC001B0228F5D91D
:101ADC00032022E0154A536823F40033A1680B431A
:101AEC005360DCE7002018E0002016E0012B16D034
:101AFC000E4B5B6803F48031226A914211D103F4DE
:101B0C007013626A93420ED1002006E001207047E8
:101B1C00012002E0012000E0002002B070BD012095
:101B2C00FBE70120F9E70120F7E700BF00100240B6
:101B3C00000042420F4B5B6803F00C02082A01D0F4
:101B4C000D487047C3F383420C49885C13F4803F03
:101B5C000BD0084B5B68C3F34043094AD35C064A7D
:101B6C0002FB00F0B0FBF3F07047064B03FB00F0F8
:101B7C00704700BF0010024000127A00981F000846
:101B8C00A81F000800093D00002800F0A08070B5D7
:101B9C000D460446524B1B6803F007038B420BD2D5
:101BAC004F4A136823F007030B431360136803F0C9
:101BBC0007038B4240F08D80236813F0020F17D07F
:101BCC0013F0040F04D0474A536843F4E0635360A6
:101BDC00236813F0080F04D0424A536843F460534F
:101BEC005360404A536823F0F003A1680B435360E1
:101BFC00236813F0010F31D06368012B20D0022B26
:101C0C0025D0384A126812F0020F64D035494A6860
:101C1C0022F0030213434B60FFF7DEFB0646314B09
:101C2C005B6803F00C036268B3EB820F16D0FFF70E
:101C3C00D3FB801B41F288339842F0D9032045E056
:101C4C00284A126812F4003FE0D101203EE0254AF8
:101C5C00126812F0007FD9D1012037E0204B1B68AD
:101C6C0003F00703AB420AD91D4A136823F007039C
:101C7C002B431360136803F00703AB422DD1236889
:101C8C0013F0040F06D0174A536823F4E063E1689D
:101C9C000B435360236813F0080F07D0114A5368A5
:101CAC0023F46053216943EAC1035360FFF742FFF9
:101CBC000C4B5B68C3F303130B4AD35CD8400B4B40
:101CCC0018600B4B1868FFF743FB002070BD012018
:101CDC0070470120FAE70120F8E70120F6E700BF82
:101CEC000020024000100240881F00080000002065
:101CFC0008000020062008B500F080F80120FFF74E
:101D0C00DFFA00BF014B1868704700BF0C000020C1
:101D1C0070B50D4E0D4D761BB61006D0002455F83F
:101D2C00043B01349847A642F9D1094E094D00F005
:101D3C0019F9761BB61006D0002455F8043B013473
:101D4C009847A642F9D170BDBC200008BC20000801
:101D5C00C4200008BC200008830730B548D0541EAE
:101D6C00002A3FD00346CAB201E0013C3AD303F843
:101D7C00012B9D07F9D1032C2DD9CDB245EA0525B0
:101D8C000F2C45EA054536D9A4F1100222F00F0CB0
:101D9C0003F1200EE6444FEA121C03F1100242E953
:101DAC00045542E9025510327245F8D10CF101028A
:101DBC0014F00C0F03EB021204F00F0C13D0ACF167
:101DCC00040323F003030433134442F8045B9342EB
:101DDC00FBD10CF003042CB1CAB21C4403F8012B48
:101DEC009C42FBD130BD64461346002CF4D1F9E77C
:101DFC0003461446BFE71A46A446E0E738B5154B30
:101E0C001F281D6820D8D5F8DC22044662B152F890
:101E1C0020304BB1012B15D0591C0FD0002542F8A6
:101E2C0020509847284638BD284600F029F822460D
:101E3C0001462846BDE8384000F00EB816230120B4
:101E4C002B6038BD002038BD16234FF0FF302B60BF
:101E5C0038BD00BF0C00002070B50026074D0446AD
:101E6C00084611462E60FFF723FA431C00D070BDC4
:101E7C002B68002BFBD0236070BD00BF60040020DA
:101E8C00FFF714BA024B13B1024800F005B87047C3
:101E9C0000000000B11E0008002301461A46184637
:101EAC0000F01AB838B5084B084D5B1B9C1007D0D6
:101EBC00043B1D44013C55F804399847002CF9D1DA
:101ECC00BDE8384000F054B8C8200008C420000811
:101EDC00704700BF704700BF2DE9F047DFF87CA0CA
:101EEC000646DAF8000098460F469146FFF7F0FFD9
:101EFC001B4B1B68D3F8484124B365681F2D26DCA7
:101F0C005EB96B1C0235DAF80000636044F825708A
:101F1C00FFF7E0FF0020BDE8F087012304EB85010B
:101F2C00C1F88890D4F88821AB401A43022EC4F82B
:101F3C008821C1F80881E4D1D4F88C211343C4F86A
:101F4C008C31DEE703F5A674C3F84841D5E7DAF81F
:101F5C000000FFF7BFFF4FF0FF30DCE73804002034
:101F6C00AC1F0008F8B500BFF8BC08BC9E46704713
:0C1F7C00F8B500BFF8BC08BC9E467047DA
:101F88000000000000000000010203040607080921
:101F980002030405060708090A0B0C0D0E0F1010A2
:081FA8000102000010000020FE
:101FB00008B10181B0B000840000000008B10181C7
:101FC000B0B000840000000008B10181B0B000840E
:041FD000000000000D
:101FD40078E1FF7F010000000CE2FF7FB0A90280DE
:101FE400A4E2FF7FB0B0A880F4E2FF7F010000000C
:101FF40000E3FF7FB0B0AA8038E3FF7FAE71B28008
:1020040008E4FF7F0100000004E4FF7FAB3F388059
:1020140064E4FF7F0100000070E4FF7FB0B0AA8099
:10202400ACE4FF7F010000005CE5FF7FAA0DB280F5
:10203400D4E5FF7FB0AF088074E8FF7F01000000A3
:1020440078E8FF7FAD3F0280E4EAFF7F01000000F3
:10205400C0ECFF7F00840480D4ECFF7F010000000B
:10206400D0ECFF7FB0AD0480ACEFFF7F0084048030
:10207400D4EFFF7F44FFFF7FD8EFFF7F48FFFF7F50
:10208400E4EFFF7F0100000030F1FF7F0084108047
:102094008CF1FF7F00840480C0F1FF7F0100000009
:1020A40090F2FF7FB0B0A8809CF2FF7F00FFFF7F1B
:0820B400A6F2FF7F010000000D
:0820BC00911E0008310100082B
:0420C4000D01000802
:1020C80000127A000100000010000000100000203B
:1020D80000000000FC02002064030020CC03002064
:1020E80000000000000000000000000000000000E8
:1020F80000000000000000000000000000000000D8
:1021080000000000000000000000000000000000C7
:1021180000000000000000000000000000000000B7
:1021280000000000000000000000000000000000A7
:102138000000000000000000000000000000000097
:102148000000000000000000000000000000000087
:102158000000000000000000000000000000000077
:102168000000000000000000000000000000000067
:102178000000000000000000010000000000000056
:102188000E33CDAB34126DE6ECDE05000B0000001B
:102198000000000000000000000000000000000037
:1021A8000000000000000000000000000000000027
:1021B8000000000000000000000000000000000017
:1021C8000000000000000000000000000000000007
:0C24F80000000000000000005C04002058
:04000005080012DD00
:00000001FF
